{
  "contractName": "CustomERC721Token",
  "abi": [
    {
      "anonymous": false,
      "inputs": [
        {
          "indexed": true,
          "internalType": "address",
          "name": "owner",
          "type": "address"
        },
        {
          "indexed": true,
          "internalType": "address",
          "name": "approved",
          "type": "address"
        },
        {
          "indexed": true,
          "internalType": "uint256",
          "name": "tokenId",
          "type": "uint256"
        }
      ],
      "name": "Approval",
      "type": "event"
    },
    {
      "anonymous": false,
      "inputs": [
        {
          "indexed": true,
          "internalType": "address",
          "name": "owner",
          "type": "address"
        },
        {
          "indexed": true,
          "internalType": "address",
          "name": "operator",
          "type": "address"
        },
        {
          "indexed": false,
          "internalType": "bool",
          "name": "approved",
          "type": "bool"
        }
      ],
      "name": "ApprovalForAll",
      "type": "event"
    },
    {
      "anonymous": false,
      "inputs": [
        {
          "indexed": true,
          "internalType": "address",
          "name": "previousOwner",
          "type": "address"
        },
        {
          "indexed": true,
          "internalType": "address",
          "name": "newOwner",
          "type": "address"
        }
      ],
      "name": "OwnershipTransferred",
      "type": "event"
    },
    {
      "anonymous": false,
      "inputs": [
        {
          "indexed": false,
          "internalType": "address",
          "name": "account",
          "type": "address"
        }
      ],
      "name": "Paused",
      "type": "event"
    },
    {
      "anonymous": false,
      "inputs": [
        {
          "indexed": true,
          "internalType": "address",
          "name": "from",
          "type": "address"
        },
        {
          "indexed": true,
          "internalType": "address",
          "name": "to",
          "type": "address"
        },
        {
          "indexed": true,
          "internalType": "uint256",
          "name": "tokenId",
          "type": "uint256"
        }
      ],
      "name": "Transfer",
      "type": "event"
    },
    {
      "anonymous": false,
      "inputs": [
        {
          "indexed": false,
          "internalType": "address",
          "name": "account",
          "type": "address"
        }
      ],
      "name": "Unpaused",
      "type": "event"
    },
    {
      "inputs": [
        {
          "internalType": "bytes32",
          "name": "_myid",
          "type": "bytes32"
        },
        {
          "internalType": "string",
          "name": "_result",
          "type": "string"
        }
      ],
      "name": "__callback",
      "outputs": [],
      "stateMutability": "nonpayable",
      "type": "function"
    },
    {
      "inputs": [
        {
          "internalType": "bytes32",
          "name": "_myid",
          "type": "bytes32"
        },
        {
          "internalType": "string",
          "name": "_result",
          "type": "string"
        },
        {
          "internalType": "bytes",
          "name": "_proof",
          "type": "bytes"
        }
      ],
      "name": "__callback",
      "outputs": [],
      "stateMutability": "nonpayable",
      "type": "function"
    },
    {
      "inputs": [
        {
          "internalType": "address",
          "name": "to",
          "type": "address"
        },
        {
          "internalType": "uint256",
          "name": "tokenId",
          "type": "uint256"
        }
      ],
      "name": "approve",
      "outputs": [],
      "stateMutability": "nonpayable",
      "type": "function"
    },
    {
      "inputs": [
        {
          "internalType": "address",
          "name": "owner",
          "type": "address"
        }
      ],
      "name": "balanceOf",
      "outputs": [
        {
          "internalType": "uint256",
          "name": "",
          "type": "uint256"
        }
      ],
      "stateMutability": "view",
      "type": "function"
    },
    {
      "inputs": [],
      "name": "baseURI",
      "outputs": [
        {
          "internalType": "string",
          "name": "",
          "type": "string"
        }
      ],
      "stateMutability": "view",
      "type": "function"
    },
    {
      "inputs": [
        {
          "internalType": "uint256",
          "name": "tokenId",
          "type": "uint256"
        }
      ],
      "name": "getApproved",
      "outputs": [
        {
          "internalType": "address",
          "name": "",
          "type": "address"
        }
      ],
      "stateMutability": "view",
      "type": "function"
    },
    {
      "inputs": [
        {
          "internalType": "address",
          "name": "owner",
          "type": "address"
        },
        {
          "internalType": "address",
          "name": "operator",
          "type": "address"
        }
      ],
      "name": "isApprovedForAll",
      "outputs": [
        {
          "internalType": "bool",
          "name": "",
          "type": "bool"
        }
      ],
      "stateMutability": "view",
      "type": "function"
    },
    {
      "inputs": [],
      "name": "name",
      "outputs": [
        {
          "internalType": "string",
          "name": "",
          "type": "string"
        }
      ],
      "stateMutability": "view",
      "type": "function"
    },
    {
      "inputs": [],
      "name": "owner",
      "outputs": [
        {
          "internalType": "address",
          "name": "",
          "type": "address"
        }
      ],
      "stateMutability": "view",
      "type": "function"
    },
    {
      "inputs": [
        {
          "internalType": "uint256",
          "name": "tokenId",
          "type": "uint256"
        }
      ],
      "name": "ownerOf",
      "outputs": [
        {
          "internalType": "address",
          "name": "",
          "type": "address"
        }
      ],
      "stateMutability": "view",
      "type": "function"
    },
    {
      "inputs": [],
      "name": "paused",
      "outputs": [
        {
          "internalType": "bool",
          "name": "",
          "type": "bool"
        }
      ],
      "stateMutability": "view",
      "type": "function"
    },
    {
      "inputs": [],
      "name": "renounceOwnership",
      "outputs": [],
      "stateMutability": "nonpayable",
      "type": "function"
    },
    {
      "inputs": [
        {
          "internalType": "address",
          "name": "from",
          "type": "address"
        },
        {
          "internalType": "address",
          "name": "to",
          "type": "address"
        },
        {
          "internalType": "uint256",
          "name": "tokenId",
          "type": "uint256"
        }
      ],
      "name": "safeTransferFrom",
      "outputs": [],
      "stateMutability": "nonpayable",
      "type": "function"
    },
    {
      "inputs": [
        {
          "internalType": "address",
          "name": "from",
          "type": "address"
        },
        {
          "internalType": "address",
          "name": "to",
          "type": "address"
        },
        {
          "internalType": "uint256",
          "name": "tokenId",
          "type": "uint256"
        },
        {
          "internalType": "bytes",
          "name": "_data",
          "type": "bytes"
        }
      ],
      "name": "safeTransferFrom",
      "outputs": [],
      "stateMutability": "nonpayable",
      "type": "function"
    },
    {
      "inputs": [
        {
          "internalType": "address",
          "name": "operator",
          "type": "address"
        },
        {
          "internalType": "bool",
          "name": "approved",
          "type": "bool"
        }
      ],
      "name": "setApprovalForAll",
      "outputs": [],
      "stateMutability": "nonpayable",
      "type": "function"
    },
    {
      "inputs": [
        {
          "internalType": "bool",
          "name": "pause",
          "type": "bool"
        }
      ],
      "name": "setPause",
      "outputs": [],
      "stateMutability": "nonpayable",
      "type": "function"
    },
    {
      "inputs": [
        {
          "internalType": "bytes4",
          "name": "interfaceId",
          "type": "bytes4"
        }
      ],
      "name": "supportsInterface",
      "outputs": [
        {
          "internalType": "bool",
          "name": "",
          "type": "bool"
        }
      ],
      "stateMutability": "view",
      "type": "function"
    },
    {
      "inputs": [],
      "name": "symbol",
      "outputs": [
        {
          "internalType": "string",
          "name": "",
          "type": "string"
        }
      ],
      "stateMutability": "view",
      "type": "function"
    },
    {
      "inputs": [
        {
          "internalType": "uint256",
          "name": "index",
          "type": "uint256"
        }
      ],
      "name": "tokenByIndex",
      "outputs": [
        {
          "internalType": "uint256",
          "name": "",
          "type": "uint256"
        }
      ],
      "stateMutability": "view",
      "type": "function"
    },
    {
      "inputs": [
        {
          "internalType": "address",
          "name": "owner",
          "type": "address"
        },
        {
          "internalType": "uint256",
          "name": "index",
          "type": "uint256"
        }
      ],
      "name": "tokenOfOwnerByIndex",
      "outputs": [
        {
          "internalType": "uint256",
          "name": "",
          "type": "uint256"
        }
      ],
      "stateMutability": "view",
      "type": "function"
    },
    {
      "inputs": [
        {
          "internalType": "uint256",
          "name": "tokenId",
          "type": "uint256"
        }
      ],
      "name": "tokenURI",
      "outputs": [
        {
          "internalType": "string",
          "name": "",
          "type": "string"
        }
      ],
      "stateMutability": "view",
      "type": "function"
    },
    {
      "inputs": [],
      "name": "totalSupply",
      "outputs": [
        {
          "internalType": "uint256",
          "name": "",
          "type": "uint256"
        }
      ],
      "stateMutability": "view",
      "type": "function"
    },
    {
      "inputs": [
        {
          "internalType": "address",
          "name": "from",
          "type": "address"
        },
        {
          "internalType": "address",
          "name": "to",
          "type": "address"
        },
        {
          "internalType": "uint256",
          "name": "tokenId",
          "type": "uint256"
        }
      ],
      "name": "transferFrom",
      "outputs": [],
      "stateMutability": "nonpayable",
      "type": "function"
    },
    {
      "inputs": [
        {
          "internalType": "address",
          "name": "newOwner",
          "type": "address"
        }
      ],
      "name": "transferOwnership",
      "outputs": [],
      "stateMutability": "nonpayable",
      "type": "function"
    },
    {
      "inputs": [
        {
          "internalType": "address",
          "name": "to",
          "type": "address"
        },
        {
          "internalType": "uint256",
          "name": "tokenId",
          "type": "uint256"
        }
      ],
      "name": "mint",
      "outputs": [
        {
          "internalType": "bool",
          "name": "",
          "type": "bool"
        }
      ],
      "stateMutability": "nonpayable",
      "type": "function"
    }
  ],
  "bytecode": "0x60806040523480156200001157600080fd5b506040518060400160405280600b81526020017f5265616c204573746174650000000000000000000000000000000000000000008152506040518060400160405280600381526020017f52455300000000000000000000000000000000000000000000000000000000008152506040518060600160405280603f8152602001620044d9603f91398282620000b26301ffc9a760e01b6200027e60201b60201c565b8160069080519060200190620000ca9291906200038f565b508060079080519060200190620000e39291906200038f565b50620000fc6380ac58cd60e01b6200027e60201b60201c565b62000114635b5e139f60e01b6200027e60201b60201c565b6200012c63780e9d6360e01b6200027e60201b60201c565b50506000600a60006101000a81548160ff02191690831515021790555060006200015b6200038760201b60201c565b905080600a60016101000a81548173ffffffffffffffffffffffffffffffffffffffff021916908373ffffffffffffffffffffffffffffffffffffffff1602179055508073ffffffffffffffffffffffffffffffffffffffff16600073ffffffffffffffffffffffffffffffffffffffff167f8be0079c531659141344cd1fd0a4f28419497f9722a3daafe3b4186f6b6457e060405160405180910390a3506200021263780e9d6360e01b6200027e60201b60201c565b82601490805190602001906200022a9291906200038f565b508160159080519060200190620002439291906200038f565b5080601690805190602001906200025c9291906200038f565b5062000275635b5e139f60e01b6200027e60201b60201c565b5050506200043e565b63ffffffff60e01b817bffffffffffffffffffffffffffffffffffffffffffffffffffffffff191614156200031b576040517f08c379a000000000000000000000000000000000000000000000000000000000815260040180806020018281038252601c8152602001807f4552433136353a20696e76616c696420696e746572666163652069640000000081525060200191505060405180910390fd5b6001600080837bffffffffffffffffffffffffffffffffffffffffffffffffffffffff19167bffffffffffffffffffffffffffffffffffffffffffffffffffffffff1916815260200190815260200160002060006101000a81548160ff02191690831515021790555050565b600033905090565b828054600181600116156101000203166002900490600052602060002090601f016020900481019282601f10620003d257805160ff191683800117855562000403565b8280016001018555821562000403579182015b8281111562000402578251825591602001919060010190620003e5565b5b50905062000412919062000416565b5090565b6200043b91905b80821115620004375760008160009055506001016200041d565b5090565b90565b61408b806200044e6000396000f3fe608060405234801561001057600080fd5b50600436106101735760003560e01c80635c975abb116100de57806395d89b4111610097578063bedb86fb11610071578063bedb86fb14610ad8578063c87b56dd14610b08578063e985e9c514610baf578063f2fde38b14610c2b57610173565b806395d89b4114610900578063a22cb46514610983578063b88d4fde146109d357610173565b80635c975abb146107415780636352211e146107635780636c0360eb146107d157806370a0823114610854578063715018a6146108ac5780638da5cb5b146108b657610173565b806327dc297e1161013057806327dc297e146103a85780632f745c591461046d57806338bbfa50146104cf57806340c10f191461062b57806342842e0e146106915780634f6ccce7146106ff57610173565b806301ffc9a71461017857806306fdde03146101dd578063081812fc14610260578063095ea7b3146102ce57806318160ddd1461031c57806323b872dd1461033a575b600080fd5b6101c36004803603602081101561018e57600080fd5b8101908080357bffffffffffffffffffffffffffffffffffffffffffffffffffffffff19169060200190929190505050610c6f565b604051808215151515815260200191505060405180910390f35b6101e5610cd6565b6040518080602001828103825283818151815260200191508051906020019080838360005b8381101561022557808201518184015260208101905061020a565b50505050905090810190601f1680156102525780820380516001836020036101000a031916815260200191505b509250505060405180910390f35b61028c6004803603602081101561027657600080fd5b8101908080359060200190929190505050610d78565b604051808273ffffffffffffffffffffffffffffffffffffffff1673ffffffffffffffffffffffffffffffffffffffff16815260200191505060405180910390f35b61031a600480360360408110156102e457600080fd5b81019080803573ffffffffffffffffffffffffffffffffffffffff16906020019092919080359060200190929190505050610e13565b005b610324610f57565b6040518082815260200191505060405180910390f35b6103a66004803603606081101561035057600080fd5b81019080803573ffffffffffffffffffffffffffffffffffffffff169060200190929190803573ffffffffffffffffffffffffffffffffffffffff16906020019092919080359060200190929190505050610f68565b005b61046b600480360360408110156103be57600080fd5b8101908080359060200190929190803590602001906401000000008111156103e557600080fd5b8201836020820111156103f757600080fd5b8035906020019184600183028401116401000000008311171561041957600080fd5b91908080601f016020809104026020016040519081016040528093929190818152602001838380828437600081840152601f19601f820116905080830192505050505050509192919290505050610fde565b005b6104b96004803603604081101561048357600080fd5b81019080803573ffffffffffffffffffffffffffffffffffffffff16906020019092919080359060200190929190505050611038565b6040518082815260200191505060405180910390f35b610629600480360360608110156104e557600080fd5b81019080803590602001909291908035906020019064010000000081111561050c57600080fd5b82018360208201111561051e57600080fd5b8035906020019184600183028401116401000000008311171561054057600080fd5b91908080601f016020809104026020016040519081016040528093929190818152602001838380828437600081840152601f19601f820116905080830192505050505050509192919290803590602001906401000000008111156105a357600080fd5b8201836020820111156105b557600080fd5b803590602001918460018302840111640100000000831117156105d757600080fd5b91908080601f016020809104026020016040519081016040528093929190818152602001838380828437600081840152601f19601f820116905080830192505050505050509192919290505050611093565b005b6106776004803603604081101561064157600080fd5b81019080803573ffffffffffffffffffffffffffffffffffffffff169060200190929190803590602001909291905050506110b6565b604051808215151515815260200191505060405180910390f35b6106fd600480360360608110156106a757600080fd5b81019080803573ffffffffffffffffffffffffffffffffffffffff169060200190929190803573ffffffffffffffffffffffffffffffffffffffff1690602001909291908035906020019092919050505061119f565b005b61072b6004803603602081101561071557600080fd5b81019080803590602001909291905050506111bf565b6040518082815260200191505060405180910390f35b6107496111e2565b604051808215151515815260200191505060405180910390f35b61078f6004803603602081101561077957600080fd5b81019080803590602001909291905050506111f9565b604051808273ffffffffffffffffffffffffffffffffffffffff1673ffffffffffffffffffffffffffffffffffffffff16815260200191505060405180910390f35b6107d9611230565b6040518080602001828103825283818151815260200191508051906020019080838360005b838110156108195780820151818401526020810190506107fe565b50505050905090810190601f1680156108465780820380516001836020036101000a031916815260200191505b509250505060405180910390f35b6108966004803603602081101561086a57600080fd5b81019080803573ffffffffffffffffffffffffffffffffffffffff1690602001909291905050506112d2565b6040518082815260200191505060405180910390f35b6108b46113a7565b005b6108be611532565b604051808273ffffffffffffffffffffffffffffffffffffffff1673ffffffffffffffffffffffffffffffffffffffff16815260200191505060405180910390f35b61090861155c565b6040518080602001828103825283818151815260200191508051906020019080838360005b8381101561094857808201518184015260208101905061092d565b50505050905090810190601f1680156109755780820380516001836020036101000a031916815260200191505b509250505060405180910390f35b6109d16004803603604081101561099957600080fd5b81019080803573ffffffffffffffffffffffffffffffffffffffff1690602001909291908035151590602001909291905050506115fe565b005b610ad6600480360360808110156109e957600080fd5b81019080803573ffffffffffffffffffffffffffffffffffffffff169060200190929190803573ffffffffffffffffffffffffffffffffffffffff1690602001909291908035906020019092919080359060200190640100000000811115610a5057600080fd5b820183602082011115610a6257600080fd5b80359060200191846001830284011164010000000083111715610a8457600080fd5b91908080601f016020809104026020016040519081016040528093929190818152602001838380828437600081840152601f19601f8201169050808301925050505050505091929192905050506117b6565b005b610b0660048036036020811015610aee57600080fd5b8101908080351515906020019092919050505061182e565b005b610b3460048036036020811015610b1e57600080fd5b810190808035906020019092919050505061191e565b6040518080602001828103825283818151815260200191508051906020019080838360005b83811015610b74578082015181840152602081019050610b59565b50505050905090810190601f168015610ba15780820380516001836020036101000a031916815260200191505b509250505060405180910390f35b610c1160048036036040811015610bc557600080fd5b81019080803573ffffffffffffffffffffffffffffffffffffffff169060200190929190803573ffffffffffffffffffffffffffffffffffffffff169060200190929190505050611c07565b604051808215151515815260200191505060405180910390f35b610c6d60048036036020811015610c4157600080fd5b81019080803573ffffffffffffffffffffffffffffffffffffffff169060200190929190505050611c9b565b005b6000806000837bffffffffffffffffffffffffffffffffffffffffffffffffffffffff19167bffffffffffffffffffffffffffffffffffffffffffffffffffffffff1916815260200190815260200160002060009054906101000a900460ff169050919050565b606060068054600181600116156101000203166002900480601f016020809104026020016040519081016040528092919081815260200182805460018160011615610100020316600290048015610d6e5780601f10610d4357610100808354040283529160200191610d6e565b820191906000526020600020905b815481529060010190602001808311610d5157829003601f168201915b5050505050905090565b6000610d8382611eab565b610dd8576040517f08c379a000000000000000000000000000000000000000000000000000000000815260040180806020018281038252602c815260200180613f54602c913960400191505060405180910390fd5b6004600083815260200190815260200160002060009054906101000a900473ffffffffffffffffffffffffffffffffffffffff169050919050565b6000610e1e826111f9565b90508073ffffffffffffffffffffffffffffffffffffffff168373ffffffffffffffffffffffffffffffffffffffff161415610ea5576040517f08c379a00000000000000000000000000000000000000000000000000000000081526004018080602001828103825260218152602001806140046021913960400191505060405180910390fd5b8073ffffffffffffffffffffffffffffffffffffffff16610ec4611ec8565b73ffffffffffffffffffffffffffffffffffffffff161480610ef35750610ef281610eed611ec8565b611c07565b5b610f48576040517f08c379a0000000000000000000000000000000000000000000000000000000008152600401808060200182810382526038815260200180613ea76038913960400191505060405180910390fd5b610f528383611ed0565b505050565b6000610f636002611f89565b905090565b610f79610f73611ec8565b82611f9e565b610fce576040517f08c379a00000000000000000000000000000000000000000000000000000000081526004018080602001828103825260318152602001806140256031913960400191505060405180910390fd5b610fd9838383612092565b505050565b6110348282600067ffffffffffffffff81118015610ffb57600080fd5b506040519080825280601f01601f19166020018201604052801561102e5781602001600182028036833780820191505090505b50611093565b5050565b600061108b82600160008673ffffffffffffffffffffffffffffffffffffffff1673ffffffffffffffffffffffffffffffffffffffff1681526020019081526020016000206120b690919063ffffffff16565b905092915050565b6000801b601260008060001b815260200190815260200160002081905550505050565b60006110c0611ec8565b73ffffffffffffffffffffffffffffffffffffffff16600a60019054906101000a900473ffffffffffffffffffffffffffffffffffffffff1673ffffffffffffffffffffffffffffffffffffffff1614611182576040517f08c379a00000000000000000000000000000000000000000000000000000000081526004018080602001828103825260208152602001807f4f776e61626c653a2063616c6c6572206973206e6f7420746865206f776e657281525060200191505060405180910390fd5b61118c83836120d0565b611195826120f1565b6001905092915050565b6111ba838383604051806020016040528060008152506117b6565b505050565b6000806111d68360026121a990919063ffffffff16565b50905080915050919050565b6000600a60009054906101000a900460ff16905090565b600061122982604051806060016040528060298152602001613f096029913960026121d89092919063ffffffff16565b9050919050565b606060098054600181600116156101000203166002900480601f0160208091040260200160405190810160405280929190818152602001828054600181600116156101000203166002900480156112c85780601f1061129d576101008083540402835291602001916112c8565b820191906000526020600020905b8154815290600101906020018083116112ab57829003601f168201915b5050505050905090565b60008073ffffffffffffffffffffffffffffffffffffffff168273ffffffffffffffffffffffffffffffffffffffff161415611359576040517f08c379a000000000000000000000000000000000000000000000000000000000815260040180806020018281038252602a815260200180613edf602a913960400191505060405180910390fd5b6113a0600160008473ffffffffffffffffffffffffffffffffffffffff1673ffffffffffffffffffffffffffffffffffffffff1681526020019081526020016000206121f7565b9050919050565b6113af611ec8565b73ffffffffffffffffffffffffffffffffffffffff16600a60019054906101000a900473ffffffffffffffffffffffffffffffffffffffff1673ffffffffffffffffffffffffffffffffffffffff1614611471576040517f08c379a00000000000000000000000000000000000000000000000000000000081526004018080602001828103825260208152602001807f4f776e61626c653a2063616c6c6572206973206e6f7420746865206f776e657281525060200191505060405180910390fd5b600073ffffffffffffffffffffffffffffffffffffffff16600a60019054906101000a900473ffffffffffffffffffffffffffffffffffffffff1673ffffffffffffffffffffffffffffffffffffffff167f8be0079c531659141344cd1fd0a4f28419497f9722a3daafe3b4186f6b6457e060405160405180910390a36000600a60016101000a81548173ffffffffffffffffffffffffffffffffffffffff021916908373ffffffffffffffffffffffffffffffffffffffff160217905550565b6000600a60019054906101000a900473ffffffffffffffffffffffffffffffffffffffff16905090565b606060078054600181600116156101000203166002900480601f0160208091040260200160405190810160405280929190818152602001828054600181600116156101000203166002900480156115f45780601f106115c9576101008083540402835291602001916115f4565b820191906000526020600020905b8154815290600101906020018083116115d757829003601f168201915b5050505050905090565b611606611ec8565b73ffffffffffffffffffffffffffffffffffffffff168273ffffffffffffffffffffffffffffffffffffffff1614156116a7576040517f08c379a00000000000000000000000000000000000000000000000000000000081526004018080602001828103825260198152602001807f4552433732313a20617070726f766520746f2063616c6c65720000000000000081525060200191505060405180910390fd5b80600560006116b4611ec8565b73ffffffffffffffffffffffffffffffffffffffff1673ffffffffffffffffffffffffffffffffffffffff16815260200190815260200160002060008473ffffffffffffffffffffffffffffffffffffffff1673ffffffffffffffffffffffffffffffffffffffff16815260200190815260200160002060006101000a81548160ff0219169083151502179055508173ffffffffffffffffffffffffffffffffffffffff16611761611ec8565b73ffffffffffffffffffffffffffffffffffffffff167f17307eab39ab6107e8899845ad3d59bd9653f200f220920489ca2b5937696c3183604051808215151515815260200191505060405180910390a35050565b6117c76117c1611ec8565b83611f9e565b61181c576040517f08c379a00000000000000000000000000000000000000000000000000000000081526004018080602001828103825260318152602001806140256031913960400191505060405180910390fd5b6118288484848461220c565b50505050565b611836611ec8565b73ffffffffffffffffffffffffffffffffffffffff16600a60019054906101000a900473ffffffffffffffffffffffffffffffffffffffff1673ffffffffffffffffffffffffffffffffffffffff16146118f8576040517f08c379a00000000000000000000000000000000000000000000000000000000081526004018080602001828103825260208152602001807f4f776e61626c653a2063616c6c6572206973206e6f7420746865206f776e657281525060200191505060405180910390fd5b6001151581151514156119125761190d61227e565b61191b565b61191a612388565b5b50565b606061192982611eab565b61197e576040517f08c379a000000000000000000000000000000000000000000000000000000000815260040180806020018281038252602f815260200180613fd5602f913960400191505060405180910390fd5b6060600860008481526020019081526020016000208054600181600116156101000203166002900480601f016020809104026020016040519081016040528092919081815260200182805460018160011615610100020316600290048015611a275780601f106119fc57610100808354040283529160200191611a27565b820191906000526020600020905b815481529060010190602001808311611a0a57829003601f168201915b50505050509050600060098054600181600116156101000203166002900490501415611a565780915050611c02565b600081511115611b2f576009816040516020018083805460018160011615610100020316600290048015611ac15780601f10611a9f576101008083540402835291820191611ac1565b820191906000526020600020905b815481529060010190602001808311611aad575b505082805190602001908083835b60208310611af25780518252602082019150602081019050602083039250611acf565b6001836020036101000a03801982511681845116808217855250505050505090500192505050604051602081830303815290604052915050611c02565b6009611b3a84612491565b6040516020018083805460018160011615610100020316600290048015611b985780601f10611b76576101008083540402835291820191611b98565b820191906000526020600020905b815481529060010190602001808311611b84575b505082805190602001908083835b60208310611bc95780518252602082019150602081019050602083039250611ba6565b6001836020036101000a038019825116818451168082178552505050505050905001925050506040516020818303038152906040529150505b919050565b6000600560008473ffffffffffffffffffffffffffffffffffffffff1673ffffffffffffffffffffffffffffffffffffffff16815260200190815260200160002060008373ffffffffffffffffffffffffffffffffffffffff1673ffffffffffffffffffffffffffffffffffffffff16815260200190815260200160002060009054906101000a900460ff16905092915050565b611ca3611ec8565b73ffffffffffffffffffffffffffffffffffffffff16600a60019054906101000a900473ffffffffffffffffffffffffffffffffffffffff1673ffffffffffffffffffffffffffffffffffffffff1614611d65576040517f08c379a00000000000000000000000000000000000000000000000000000000081526004018080602001828103825260208152602001807f4f776e61626c653a2063616c6c6572206973206e6f7420746865206f776e657281525060200191505060405180910390fd5b600073ffffffffffffffffffffffffffffffffffffffff168173ffffffffffffffffffffffffffffffffffffffff161415611deb576040517f08c379a0000000000000000000000000000000000000000000000000000000008152600401808060200182810382526026815260200180613e316026913960400191505060405180910390fd5b8073ffffffffffffffffffffffffffffffffffffffff16600a60019054906101000a900473ffffffffffffffffffffffffffffffffffffffff1673ffffffffffffffffffffffffffffffffffffffff167f8be0079c531659141344cd1fd0a4f28419497f9722a3daafe3b4186f6b6457e060405160405180910390a380600a60016101000a81548173ffffffffffffffffffffffffffffffffffffffff021916908373ffffffffffffffffffffffffffffffffffffffff16021790555050565b6000611ec18260026125d890919063ffffffff16565b9050919050565b600033905090565b816004600083815260200190815260200160002060006101000a81548173ffffffffffffffffffffffffffffffffffffffff021916908373ffffffffffffffffffffffffffffffffffffffff160217905550808273ffffffffffffffffffffffffffffffffffffffff16611f43836111f9565b73ffffffffffffffffffffffffffffffffffffffff167f8c5be1e5ebec7d5bd14f71427d1e84f3dd0314c0f7b2291e5b200ac8c7c3b92560405160405180910390a45050565b6000611f97826000016125f2565b9050919050565b6000611fa982611eab565b611ffe576040517f08c379a000000000000000000000000000000000000000000000000000000000815260040180806020018281038252602c815260200180613e7b602c913960400191505060405180910390fd5b6000612009836111f9565b90508073ffffffffffffffffffffffffffffffffffffffff168473ffffffffffffffffffffffffffffffffffffffff16148061207857508373ffffffffffffffffffffffffffffffffffffffff1661206084610d78565b73ffffffffffffffffffffffffffffffffffffffff16145b8061208957506120888185611c07565b5b91505092915050565b61209d838383612603565b6120a78382612846565b6120b182826129ef565b505050565b60006120c58360000183612ab3565b60001c905092915050565b6120da8282612b36565b6120e482826129ef565b6120ed81612d2a565b5050565b6121a6816121a160168054600181600116156101000203166002900480601f01602080910402602001604051908101604052809291908181526020018280546001816001161561010002031660029004801561218e5780601f106121635761010080835404028352916020019161218e565b820191906000526020600020905b81548152906001019060200180831161217157829003601f168201915b505050505061219c85612d73565b612eb7565b612efb565b50565b6000806000806121bc8660000186612f85565b915091508160001c8160001c8090509350935050509250929050565b60006121eb846000018460001b8461301e565b60001c90509392505050565b600061220582600001613114565b9050919050565b612217848484612092565b61222384848484613125565b612278576040517f08c379a0000000000000000000000000000000000000000000000000000000008152600401808060200182810382526032815260200180613dff6032913960400191505060405180910390fd5b50505050565b600a60009054906101000a900460ff1615612301576040517f08c379a00000000000000000000000000000000000000000000000000000000081526004018080602001828103825260108152602001807f5061757361626c653a207061757365640000000000000000000000000000000081525060200191505060405180910390fd5b6001600a60006101000a81548160ff0219169083151502179055507f62e78cea01bee320cd4e420270b5ea74000d11b0c9f74754ebdbfc544b05a258612345611ec8565b604051808273ffffffffffffffffffffffffffffffffffffffff1673ffffffffffffffffffffffffffffffffffffffff16815260200191505060405180910390a1565b600a60009054906101000a900460ff1661240a576040517f08c379a00000000000000000000000000000000000000000000000000000000081526004018080602001828103825260148152602001807f5061757361626c653a206e6f742070617573656400000000000000000000000081525060200191505060405180910390fd5b6000600a60006101000a81548160ff0219169083151502179055507f5db9ee0a495bf2e6ff9c91a7834c1ba4fdd244a5e8aa4e537bd38aeae4b073aa61244e611ec8565b604051808273ffffffffffffffffffffffffffffffffffffffff1673ffffffffffffffffffffffffffffffffffffffff16815260200191505060405180910390a1565b606060008214156124d9576040518060400160405280600181526020017f300000000000000000000000000000000000000000000000000000000000000081525090506125d3565b600082905060005b60008214612503578080600101915050600a82816124fb57fe5b0491506124e1565b60608167ffffffffffffffff8111801561251c57600080fd5b506040519080825280601f01601f19166020018201604052801561254f5781602001600182028036833780820191505090505b50905060006001830390508593505b600084146125cb57600a848161257057fe5b0660300160f81b8282806001900393508151811061258a57fe5b60200101907effffffffffffffffffffffffffffffffffffffffffffffffffffffffffffff1916908160001a905350600a84816125c357fe5b04935061255e565b819450505050505b919050565b60006125ea836000018360001b61336a565b905092915050565b600081600001805490509050919050565b8273ffffffffffffffffffffffffffffffffffffffff16612623826111f9565b73ffffffffffffffffffffffffffffffffffffffff161461268f576040517f08c379a0000000000000000000000000000000000000000000000000000000008152600401808060200182810382526029815260200180613fac6029913960400191505060405180910390fd5b600073ffffffffffffffffffffffffffffffffffffffff168273ffffffffffffffffffffffffffffffffffffffff161415612715576040517f08c379a0000000000000000000000000000000000000000000000000000000008152600401808060200182810382526024815260200180613e576024913960400191505060405180910390fd5b61272083838361338d565b61272b600082611ed0565b61277c81600160008673ffffffffffffffffffffffffffffffffffffffff1673ffffffffffffffffffffffffffffffffffffffff1681526020019081526020016000206133fb90919063ffffffff16565b506127ce81600160008573ffffffffffffffffffffffffffffffffffffffff1673ffffffffffffffffffffffffffffffffffffffff16815260200190815260200160002061341590919063ffffffff16565b506127e58183600261342f9092919063ffffffff16565b50808273ffffffffffffffffffffffffffffffffffffffff168473ffffffffffffffffffffffffffffffffffffffff167fddf252ad1be2c89b69c2b068fc378daa952ba7f163c4a11628f55a4df523b3ef60405160405180910390a4505050565b600061289e6001600b60008673ffffffffffffffffffffffffffffffffffffffff1673ffffffffffffffffffffffffffffffffffffffff1681526020019081526020016000208054905061346490919063ffffffff16565b90506000600c600084815260200190815260200160002054905081811461298b576000600b60008673ffffffffffffffffffffffffffffffffffffffff1673ffffffffffffffffffffffffffffffffffffffff168152602001908152602001600020838154811061290b57fe5b9060005260206000200154905080600b60008773ffffffffffffffffffffffffffffffffffffffff1673ffffffffffffffffffffffffffffffffffffffff168152602001908152602001600020838154811061296357fe5b906000526020600020018190555081600c600083815260200190815260200160002081905550505b600b60008573ffffffffffffffffffffffffffffffffffffffff1673ffffffffffffffffffffffffffffffffffffffff1681526020019081526020016000208054806129d357fe5b6001900381819060005260206000200160009055905550505050565b600b60008373ffffffffffffffffffffffffffffffffffffffff1673ffffffffffffffffffffffffffffffffffffffff16815260200190815260200160002080549050600c600083815260200190815260200160002081905550600b60008373ffffffffffffffffffffffffffffffffffffffff1673ffffffffffffffffffffffffffffffffffffffff1681526020019081526020016000208190806001815401808255809150506001900390600052602060002001600090919091909150555050565b600081836000018054905011612b14576040517f08c379a0000000000000000000000000000000000000000000000000000000008152600401808060200182810382526022815260200180613db26022913960400191505060405180910390fd5b826000018281548110612b2357fe5b9060005260206000200154905092915050565b600073ffffffffffffffffffffffffffffffffffffffff168273ffffffffffffffffffffffffffffffffffffffff161415612bd9576040517f08c379a00000000000000000000000000000000000000000000000000000000081526004018080602001828103825260208152602001807f4552433732313a206d696e7420746f20746865207a65726f206164647265737381525060200191505060405180910390fd5b612be281611eab565b15612c55576040517f08c379a000000000000000000000000000000000000000000000000000000000815260040180806020018281038252601c8152602001807f4552433732313a20746f6b656e20616c7265616479206d696e7465640000000081525060200191505060405180910390fd5b612c616000838361338d565b612cb281600160008573ffffffffffffffffffffffffffffffffffffffff1673ffffffffffffffffffffffffffffffffffffffff16815260200190815260200160002061341590919063ffffffff16565b50612cc98183600261342f9092919063ffffffff16565b50808273ffffffffffffffffffffffffffffffffffffffff16600073ffffffffffffffffffffffffffffffffffffffff167fddf252ad1be2c89b69c2b068fc378daa952ba7f163c4a11628f55a4df523b3ef60405160405180910390a45050565b600d80549050600e600083815260200190815260200160002081905550600d81908060018154018082558091505060019003906000526020600020016000909190919091505550565b60606000821415612dbb576040518060400160405280600181526020017f30000000000000000000000000000000000000000000000000000000000000008152509050612eb2565b600082905060005b60008214612de5578080600101915050600a8281612ddd57fe5b049150612dc3565b60608167ffffffffffffffff81118015612dfe57600080fd5b506040519080825280601f01601f191660200182016040528015612e315781602001600182028036833780820191505090505b50905060006001830390505b60008614612eaa57600a8681612e4f57fe5b0660300160f81b82828060019003935081518110612e6957fe5b60200101907effffffffffffffffffffffffffffffffffffffffffffffffffffffffffffff1916908160001a905350600a8681612ea257fe5b049550612e3d565b819450505050505b919050565b6060612ef383836040518060200160405280600081525060405180602001604052806000815250604051806020016040528060008152506134ae565b905092915050565b612f0482611eab565b612f59576040517f08c379a000000000000000000000000000000000000000000000000000000000815260040180806020018281038252602c815260200180613f80602c913960400191505060405180910390fd5b80600860008481526020019081526020016000209080519060200190612f80929190613d0c565b505050565b60008082846000018054905011612fe7576040517f08c379a0000000000000000000000000000000000000000000000000000000008152600401808060200182810382526022815260200180613f326022913960400191505060405180910390fd5b6000846000018481548110612ff857fe5b906000526020600020906002020190508060000154816001015492509250509250929050565b600080846001016000858152602001908152602001600020549050600081141583906130e5576040517f08c379a00000000000000000000000000000000000000000000000000000000081526004018080602001828103825283818151815260200191508051906020019080838360005b838110156130aa57808201518184015260208101905061308f565b50505050905090810190601f1680156130d75780820380516001836020036101000a031916815260200191505b509250505060405180910390fd5b508460000160018203815481106130f857fe5b9060005260206000209060020201600101549150509392505050565b600081600001805490509050919050565b60006131468473ffffffffffffffffffffffffffffffffffffffff16613787565b6131535760019050613362565b60606132e963150b7a0260e01b613168611ec8565b888787604051602401808573ffffffffffffffffffffffffffffffffffffffff1673ffffffffffffffffffffffffffffffffffffffff1681526020018473ffffffffffffffffffffffffffffffffffffffff1673ffffffffffffffffffffffffffffffffffffffff16815260200183815260200180602001828103825283818151815260200191508051906020019080838360005b838110156132185780820151818401526020810190506131fd565b50505050905090810190601f1680156132455780820380516001836020036101000a031916815260200191505b5095505050505050604051602081830303815290604052907bffffffffffffffffffffffffffffffffffffffffffffffffffffffff19166020820180517bffffffffffffffffffffffffffffffffffffffffffffffffffffffff8381831617835250505050604051806060016040528060328152602001613dff603291398773ffffffffffffffffffffffffffffffffffffffff166137d29092919063ffffffff16565b9050600081806020019051602081101561330257600080fd5b8101908080519060200190929190505050905063150b7a0260e01b7bffffffffffffffffffffffffffffffffffffffffffffffffffffffff1916817bffffffffffffffffffffffffffffffffffffffffffffffffffffffff191614925050505b949350505050565b600080836001016000848152602001908152602001600020541415905092915050565b6133988383836137ea565b6133a06111e2565b156133f6576040517f08c379a000000000000000000000000000000000000000000000000000000000815260040180806020018281038252602b815260200180613dd4602b913960400191505060405180910390fd5b505050565b600061340d836000018360001b6137ef565b905092915050565b6000613427836000018360001b6138d7565b905092915050565b600061345b846000018460001b8473ffffffffffffffffffffffffffffffffffffffff1660001b613947565b90509392505050565b60006134a683836040518060400160405280601e81526020017f536166654d6174683a207375627472616374696f6e206f766572666c6f770000815250613a23565b905092915050565b60608086905060608690506060869050606086905060608690506060815183518551875189510101010167ffffffffffffffff811180156134ee57600080fd5b506040519080825280601f01601f1916602001820160405280156135215781602001600182028036833780820191505090505b509050606081905060008090506000809050600090505b88518110156135a65788818151811061354d57fe5b602001015160f81c60f81b83838060010194508151811061356a57fe5b60200101907effffffffffffffffffffffffffffffffffffffffffffffffffffffffffffff1916908160001a9053508080600101915050613538565b600090505b8751811015613619578781815181106135c057fe5b602001015160f81c60f81b8383806001019450815181106135dd57fe5b60200101907effffffffffffffffffffffffffffffffffffffffffffffffffffffffffffff1916908160001a90535080806001019150506135ab565b600090505b865181101561368c5786818151811061363357fe5b602001015160f81c60f81b83838060010194508151811061365057fe5b60200101907effffffffffffffffffffffffffffffffffffffffffffffffffffffffffffff1916908160001a905350808060010191505061361e565b600090505b85518110156136ff578581815181106136a657fe5b602001015160f81c60f81b8383806001019450815181106136c357fe5b60200101907effffffffffffffffffffffffffffffffffffffffffffffffffffffffffffff1916908160001a9053508080600101915050613691565b600090505b84518110156137725784818151811061371957fe5b602001015160f81c60f81b83838060010194508151811061373657fe5b60200101907effffffffffffffffffffffffffffffffffffffffffffffffffffffffffffff1916908160001a9053508080600101915050613704565b82995050505050505050505095945050505050565b60008060007fc5d2460186f7233c927e7db2dcc703c0e500b653ca82273b7bfad8045d85a47060001b9050833f91508082141580156137c957506000801b8214155b92505050919050565b60606137e18484600085613ae3565b90509392505050565b505050565b600080836001016000848152602001908152602001600020549050600081146138cb576000600182039050600060018660000180549050039050600086600001828154811061383a57fe5b906000526020600020015490508087600001848154811061385757fe5b906000526020600020018190555060018301876001016000838152602001908152602001600020819055508660000180548061388f57fe5b600190038181906000526020600020016000905590558660010160008781526020019081526020016000206000905560019450505050506138d1565b60009150505b92915050565b60006138e38383613ce9565b61393c578260000182908060018154018082558091505060019003906000526020600020016000909190919091505582600001805490508360010160008481526020019081526020016000208190555060019050613941565b600090505b92915050565b60008084600101600085815260200190815260200160002054905060008114156139ee57846000016040518060400160405280868152602001858152509080600181540180825580915050600190039060005260206000209060020201600090919091909150600082015181600001556020820151816001015550508460000180549050856001016000868152602001908152602001600020819055506001915050613a1c565b82856000016001830381548110613a0157fe5b90600052602060002090600202016001018190555060009150505b9392505050565b6000838311158290613ad0576040517f08c379a00000000000000000000000000000000000000000000000000000000081526004018080602001828103825283818151815260200191508051906020019080838360005b83811015613a95578082015181840152602081019050613a7a565b50505050905090810190601f168015613ac25780820380516001836020036101000a031916815260200191505b509250505060405180910390fd5b5060008385039050809150509392505050565b6060613aee85613787565b613b60576040517f08c379a000000000000000000000000000000000000000000000000000000000815260040180806020018281038252601d8152602001807f416464726573733a2063616c6c20746f206e6f6e2d636f6e747261637400000081525060200191505060405180910390fd5b600060608673ffffffffffffffffffffffffffffffffffffffff1685876040518082805190602001908083835b60208310613bb05780518252602082019150602081019050602083039250613b8d565b6001836020036101000a03801982511681845116808217855250505050505090500191505060006040518083038185875af1925050503d8060008114613c12576040519150601f19603f3d011682016040523d82523d6000602084013e613c17565b606091505b50915091508115613c2c578092505050613ce1565b600081511115613c3f5780518082602001fd5b836040517f08c379a00000000000000000000000000000000000000000000000000000000081526004018080602001828103825283818151815260200191508051906020019080838360005b83811015613ca6578082015181840152602081019050613c8b565b50505050905090810190601f168015613cd35780820380516001836020036101000a031916815260200191505b509250505060405180910390fd5b949350505050565b600080836001016000848152602001908152602001600020541415905092915050565b828054600181600116156101000203166002900490600052602060002090601f016020900481019282601f10613d4d57805160ff1916838001178555613d7b565b82800160010185558215613d7b579182015b82811115613d7a578251825591602001919060010190613d5f565b5b509050613d889190613d8c565b5090565b613dae91905b80821115613daa576000816000905550600101613d92565b5090565b9056fe456e756d657261626c655365743a20696e646578206f7574206f6620626f756e64734552433732315061757361626c653a20746f6b656e207472616e73666572207768696c65207061757365644552433732313a207472616e7366657220746f206e6f6e20455243373231526563656976657220696d706c656d656e7465724f776e61626c653a206e6577206f776e657220697320746865207a65726f20616464726573734552433732313a207472616e7366657220746f20746865207a65726f20616464726573734552433732313a206f70657261746f7220717565727920666f72206e6f6e6578697374656e7420746f6b656e4552433732313a20617070726f76652063616c6c6572206973206e6f74206f776e6572206e6f7220617070726f76656420666f7220616c6c4552433732313a2062616c616e636520717565727920666f7220746865207a65726f20616464726573734552433732313a206f776e657220717565727920666f72206e6f6e6578697374656e7420746f6b656e456e756d657261626c654d61703a20696e646578206f7574206f6620626f756e64734552433732313a20617070726f76656420717565727920666f72206e6f6e6578697374656e7420746f6b656e4552433732314d657461646174613a2055524920736574206f66206e6f6e6578697374656e7420746f6b656e4552433732313a207472616e73666572206f6620746f6b656e2074686174206973206e6f74206f776e4552433732314d657461646174613a2055524920717565727920666f72206e6f6e6578697374656e7420746f6b656e4552433732313a20617070726f76616c20746f2063757272656e74206f776e65724552433732313a207472616e736665722063616c6c6572206973206e6f74206f776e6572206e6f7220617070726f766564a26469706673582212204aee348b47f4e3bc4960f1ca7aa89783435ff74a77888bf453099848b45fb89864736f6c6343000609003368747470733a2f2f73332d75732d776573742d322e616d617a6f6e6177732e636f6d2f756461636974792d626c6f636b636861696e2f63617073746f6e652f",
  "immutableReferences": {},
  "source": "// SPDX-License-Identifier: MIT\npragma solidity 0.6.9;\n\nimport \"../node_modules/@openzeppelin/contracts/utils/Address.sol\";\nimport \"../node_modules/@openzeppelin/contracts/utils/Counters.sol\";\nimport \"../node_modules/@openzeppelin/contracts/math/SafeMath.sol\";\nimport \"../node_modules/@openzeppelin/contracts/token/ERC721/IERC721Receiver.sol\";\nimport \"./provableAPI_0.6.sol\";\nimport \"../node_modules/@openzeppelin/contracts/access/Ownable.sol\";\nimport \"../node_modules/@openzeppelin/contracts/introspection/ERC165.sol\";\nimport \"../node_modules/@openzeppelin/contracts/token/ERC721/ERC721Pausable.sol\";\n\n// contract Ownable {\n//     //  TODO's\n//     //  1) create a private '_owner' variable of type address with a public getter function\n//     address private _owner;\n\n//     function owner() public view returns (address) {\n//         return _owner;\n//     }\n\n//     //  2) create an internal constructor that sets the _owner var to the creater of the contract\n//     constructor() internal {\n//         _owner = msg.sender;\n//         emit OwnershipTransferred(address(0), msg.sender);\n//     }\n\n//     //  3) create an 'onlyOwner' modifier that throws if called by any account other than the owner.\n//     modifier onlyOwner() {\n//         require(msg.sender == _owner, \"Only Owner\");\n//         _;\n//     }\n//     //  4) fill out the transferOwnership function\n//     //  5) create an event that emits anytime ownerShip is transfered (including in the constructor)\n//     event OwnershipTransferred(address indexed previousOwner, address indexed newOwner);\n\n//     function transferOwnership(address newOwner) public onlyOwner {\n//         // TODO add functionality to transfer control of the contract to a newOwner.\n//         // make sure the new owner is a real address\n//         require(newOwner != address(0), \"Need real address\");\n//         _owner = newOwner;\n//         emit OwnershipTransferred(address(0), msg.sender);\n//     }\n// }\n\n//  TODO's: Create a Pausable contract that inherits from the Ownable contract\n//  1) create a private '_paused' variable of type bool\n//  2) create a public setter using the inherited onlyOwner modifier\n//  3) create an internal constructor that sets the _paused variable to false\n//  4) create 'whenNotPaused' & 'paused' modifier that throws in the appropriate situation\n//  5) create a Paused & Unpaused event that emits the address that triggered the event\n// contract Pausable is Ownable {\n//     bool private _paused;\n\n//     event Paused(address caller);\n\n//     event Unpaused(address caller);\n\n//     function setPause(bool pause) public onlyOwner {\n//         _paused = pause;\n//         if (_paused) {\n//             emit Paused(msg.sender);\n//         } else {\n//             emit Unpaused(msg.sender);\n//         }\n//     }\n\n//     constructor() internal {\n//         _paused = false;\n//     }\n\n//     modifier whenNotPaused() {\n//         require(_paused == false, \"require not be paused\");\n//         _;\n//     }\n\n//     modifier paused() {\n//         require(_paused, \"require be paused\");\n//         _;\n//     }\n// }\n\n// contract ERC165 {\n//     bytes4 private constant _INTERFACE_ID_ERC165 = 0x01ffc9a7;\n//     /*\n//      * 0x01ffc9a7 ===\n//      *     bytes4(keccak256('supportsInterface(bytes4)'))\n//      */\n\n//     /**\n//      * @dev a mapping of interface id to whether or not it's supported\n//      */\n//     mapping(bytes4 => bool) private _supportedInterfaces;\n\n//     /**\n//      * @dev A contract implementing SupportsInterfaceWithLookup\n//      * implement ERC165 itself\n//      */\n//     constructor() internal {\n//         _registerInterface(_INTERFACE_ID_ERC165);\n//     }\n\n//     /**\n//      * @dev implement supportsInterface(bytes4) using a lookup table\n//      */\n//     function supportsInterface(bytes4 interfaceId)\n//         external\n//         view\n//         returns (bool)\n//     {\n//         return _supportedInterfaces[interfaceId];\n//     }\n\n//     /**\n//      * @dev internal method for registering an interface\n//      */\n//     function _registerInterface(bytes4 interfaceId) internal {\n//         require(interfaceId != 0xffffffff);\n//         _supportedInterfaces[interfaceId] = true;\n//     }\n// }\n\n// contract ERC721 is Pausable, ERC165 {\n//     event Transfer(\n//         address indexed from,\n//         address indexed to,\n//         uint256 indexed tokenId\n//     );\n\n//     event Approval(\n//         address indexed owner,\n//         address indexed approved,\n//         uint256 indexed tokenId\n//     );\n\n//     event ApprovalForAll(\n//         address indexed owner,\n//         address indexed operator,\n//         bool approved\n//     );\n\n//     using SafeMath for uint256;\n//     using Address for address;\n//     using Counters for Counters.Counter;\n\n//     // Equals to `bytes4(keccak256(\"onERC721Received(address,address,uint256,bytes)\"))`\n//     // which can be also obtained as `IERC721Receiver(0).onERC721Received.selector`\n//     bytes4 private constant _ERC721_RECEIVED = 0x150b7a02;\n\n//     // Mapping from token ID to owner\n//     mapping(uint256 => address) private _tokenOwner;\n\n//     // Mapping from token ID to approved address\n//     mapping(uint256 => address) private _tokenApprovals;\n\n//     // Mapping from owner to number of owned token\n//     // IMPORTANT: this mapping uses Counters lib which is used to protect overflow when incrementing/decrementing a uint\n//     // use the following functions when interacting with Counters: increment(), decrement(), and current() to get the value\n//     // see: https://github.com/OpenZeppelin/openzeppelin-solidity/blob/master/contracts/drafts/Counters.sol\n//     mapping(address => Counters.Counter) private _ownedTokensCount;\n\n//     // Mapping from owner to operator approvals\n//     mapping(address => mapping(address => bool)) private _operatorApprovals;\n\n//     bytes4 private constant _INTERFACE_ID_ERC721 = 0x80ac58cd;\n\n//     constructor() public {\n//         // register the supported interfaces to conform to ERC721 via ERC165\n//         _registerInterface(_INTERFACE_ID_ERC721);\n//     }\n\n//     function balanceOf(address owner) public view returns (uint256) {\n//         // TODO return the token balance of given address\n//         // TIP: remember the functions to use for Counters. you can refresh yourself with the link above\n//         require(owner != address(0), \"Balance query for the zero address\");\n//         return _ownedTokensCount[owner]._value;\n//     }\n\n//     function ownerOf(uint256 tokenId) public view returns (address) {\n//         // TODO return the owner of the given tokenId\n//         return _tokenOwner[tokenId];\n//     }\n\n//     //    @dev Approves another address to transfer the given token ID\n//     function approve(address to, uint256 tokenId) public {\n//         // TODO require the given address to not be the owner of the tokenId\n//         require(\n//             to != _tokenOwner[tokenId],\n//             \"require the given addres to not be the owner of the tokenId\"\n//         );\n\n//         // TODO require the msg sender to be the owner of the contract or isApprovedForAll() to be true\n//         require(\n//             msg.sender == ownerOf(tokenId) || isApprovedForAll(_tokenOwner[tokenId], msg.sender),\n//             \"require msg sender to be the owner or isApprovedForAll() to be true\"\n//         );\n\n//         // TODO add 'to' address to token approvals\n//         _tokenApprovals[tokenId] = to;\n\n//         // TODO emit Approval Event\n//         emit Approval(msg.sender, to, tokenId);\n//     }\n\n//     function getApproved(uint256 tokenId) public view returns (address) {\n//         // TODO return token approval if it exists\n//         require(\n//             _tokenApprovals[tokenId] != address(0),\n//             \"token approval doesn't exists\"\n//         );\n//         return _tokenApprovals[tokenId];\n//     }\n\n//     /**\n//      * @dev Sets or unsets the approval of a given operator\n//      * An operator is allowed to transfer all tokens of the sender on their behalf\n//      * @param to operator address to set the approval\n//      * @param approved representing the status of the approval to be set\n//      */\n//     function setApprovalForAll(address to, bool approved) public {\n//         require(to != msg.sender);\n//         _operatorApprovals[msg.sender][to] = approved;\n//         emit ApprovalForAll(msg.sender, to, approved);\n//     }\n\n//     /**\n//      * @dev Tells whether an operator is approved by a given owner\n//      * @param owner owner address which you want to query the approval of\n//      * @param operator operator address which you want to query the approval of\n//      * @return bool whether the given operator is approved by the given owner\n//      */\n//     function isApprovedForAll(address owner, address operator)\n//         public\n//         view\n//         returns (bool)\n//     {\n//         return _operatorApprovals[owner][operator];\n//     }\n\n//     function transferFrom(\n//         address from,\n//         address to,\n//         uint256 tokenId\n//     ) public whenNotPaused {\n//         require(_isApprovedOrOwner(msg.sender, tokenId));\n\n//         _transferFrom(from, to, tokenId);\n//     }\n\n//     function safeTransferFrom(\n//         address from,\n//         address to,\n//         uint256 tokenId\n//     ) public {\n//         safeTransferFrom(from, to, tokenId, \"\");\n//     }\n\n//     function safeTransferFrom(\n//         address from,\n//         address to,\n//         uint256 tokenId,\n//         bytes memory _data\n//     ) public {\n//         transferFrom(from, to, tokenId);\n//         require(_checkOnERC721Received(from, to, tokenId, _data));\n//     }\n\n//     /**\n//      * @dev Returns whether the specified token exists\n//      * @param tokenId uint256 ID of the token to query the existence of\n//      * @return bool whether the token exists\n//      */\n//     function _exists(uint256 tokenId) internal view returns (bool) {\n//         address owner = _tokenOwner[tokenId];\n//         return owner != address(0);\n//     }\n\n//     /**\n//      * @dev Returns whether the given spender can transfer a given token ID\n//      * @param spender address of the spender to query\n//      * @param tokenId uint256 ID of the token to be transferred\n//      * @return bool whether the msg.sender is approved for the given token ID,\n//      * is an operator of the owner, or is the owner of the token\n//      */\n//     function _isApprovedOrOwner(address spender, uint256 tokenId)\n//         internal\n//         view\n//         returns (bool)\n//     {\n//         address owner = ownerOf(tokenId);\n//         return (spender == owner ||\n//             getApproved(tokenId) == spender ||\n//             isApprovedForAll(owner, spender));\n//     }\n\n//     // @dev Internal function to mint a new token\n//     // TIP: remember the functions to use for Counters. you can refresh yourself with the link above\n//     function _mint(address to, uint256 tokenId) internal virtual {\n//         require(to != address(0), \"mint to the zero address\");\n//         // TODO revert if given tokenId already exists or given address is invalid\n//         require(_tokenOwner[tokenId] == address(0), \"tokenId already exists\");\n//         // TODO mint tokenId to given address & increase token count of owner\n//         _tokenOwner[tokenId] = to;\n//         _ownedTokensCount[to].increment();\n//         // TODO emit Transfer event\n//         emit Transfer(msg.sender, to, tokenId);\n//     }\n\n//     // @dev Internal function to transfer ownership of a given token ID to another address.\n//     // TIP: remember the functions to use for Counters. you can refresh yourself with the link above\n//     function _transferFrom(\n//         address from,\n//         address to,\n//         uint256 tokenId\n//     ) internal virtual {\n//         // TODO: require from address is the owner of the given token\n\n//         require(\n//             from == ownerOf(tokenId),\n//             \"require from address is the owner of the given token\"\n//         );\n//         // TODO: require token is being transfered to valid address\n//         require(\n//             to != address(0),\n//             \"require token is being transfered to valid address\"\n//         );\n\n//         // TODO: clear approval\n//         _tokenApprovals[tokenId] = address(0);\n//         // TODO: update token counts & transfer ownership of the token ID\n//         _ownedTokensCount[from].decrement();\n//         _ownedTokensCount[to].increment();\n//         _tokenOwner[tokenId] = to;\n//         // TODO: emit correct event\n//         emit Transfer(from, to, tokenId);\n//     }\n\n//     /**\n//      * @dev Internal function to invoke `onERC721Received` on a target address\n//      * The call is not executed if the target address is not a contract\n//      * @param from address representing the previous owner of the given token ID\n//      * @param to target address that will receive the tokens\n//      * @param tokenId uint256 ID of the token to be transferred\n//      * @param _data bytes optional data to send along with the call\n//      * @return bool whether the call correctly returned the expected magic value\n//      */\n//     function _checkOnERC721Received(\n//         address from,\n//         address to,\n//         uint256 tokenId,\n//         bytes memory _data\n//     ) internal returns (bool) {\n//         if (!to.isContract()) {\n//             return true;\n//         }\n\n//         bytes4 retval = IERC721Receiver(to).onERC721Received(\n//             msg.sender,\n//             from,\n//             tokenId,\n//             _data\n//         );\n//         return (retval == _ERC721_RECEIVED);\n//     }\n\n//     // @dev Private function to clear current approval of a given token ID\n//     function _clearApproval(uint256 tokenId) private {\n//         if (_tokenApprovals[tokenId] != address(0)) {\n//             _tokenApprovals[tokenId] = address(0);\n//         }\n//     }\n// }\n\nabstract contract ERC721Enumerable is ERC165, ERC721Pausable, Ownable {\n    // declare setPause to call _pause and _unpause\n    function setPause(bool pause) public onlyOwner {\n        if (pause == true) {\n            _pause();\n        } else {\n            _unpause();\n        }\n    }\n\n    // Mapping from owner to list of owned token IDs\n    mapping(address => uint256[]) private _ownedTokens;\n\n    // Mapping from token ID to index of the owner tokens list\n    mapping(uint256 => uint256) private _ownedTokensIndex;\n\n    // Array with all token ids, used for enumeration\n    uint256[] private _allTokens;\n\n    // Mapping from token id to position in the allTokens array\n    mapping(uint256 => uint256) private _allTokensIndex;\n\n    bytes4 private constant _INTERFACE_ID_ERC721_ENUMERABLE = 0x780e9d63;\n\n    /*\n     * 0x780e9d63 ===\n     *     bytes4(keccak256('totalSupply()')) ^\n     *     bytes4(keccak256('tokenOfOwnerByIndex(address,uint256)')) ^\n     *     bytes4(keccak256('tokenByIndex(uint256)'))\n     */\n\n    /**\n     * @dev Constructor function\n     */\n    constructor() public {\n        // register the supported interface to conform to ERC721Enumerable via ERC165\n        _registerInterface(_INTERFACE_ID_ERC721_ENUMERABLE);\n    }\n\n    /**\n     * @dev Gets the token ID at a given index of the tokens list of the requested owner\n     * @param owner address owning the tokens list to be accessed\n     * @param index uint256 representing the index to be accessed of the requested tokens list\n     * @return uint256 token ID at the given index of the tokens list owned by the requested address\n     */\n    // function tokenOfOwnerByIndex(address owner, uint256 index)\n    //     public\n    //     view\n    //     returns (uint256)\n    // {\n    //     require(index < balanceOf(owner));\n    //     return _ownedTokens[owner][index];\n    // }\n\n    /**\n     * @dev Gets the total amount of tokens stored by the contract\n     * @return uint256 representing the total amount of tokens\n     */\n    // function totalSupply() public view override returns (uint256) {\n    //     return _allTokens.length;\n    // }\n\n    /**\n     * @dev Gets the token ID at a given index of all the tokens in this contract\n     * Reverts if the index is greater or equal to the total number of tokens\n     * @param index uint256 representing the index to be accessed of the tokens list\n     * @return uint256 token ID at the given index of the tokens list\n     */\n    // function tokenByIndex(uint256 index)\n    //     public\n    //     view\n    //     override\n    //     returns (uint256)\n    // {\n    //     require(index < totalSupply());\n    //     return _allTokens[index];\n    // }\n\n    /**\n     * @dev Internal function to transfer ownership of a given token ID to another address.\n     * As opposed to transferFrom, this imposes no restrictions on msg.sender.\n     * @param from current owner of the token\n     * @param to address to receive the ownership of the given token ID\n     * @param tokenId uint256 ID of the token to be transferred\n     */\n    function _transfer(\n        address from,\n        address to,\n        uint256 tokenId\n    ) internal override {\n        super._transfer(from, to, tokenId);\n\n        _removeTokenFromOwnerEnumeration(from, tokenId);\n\n        _addTokenToOwnerEnumeration(to, tokenId);\n    }\n\n    /**\n     * @dev Internal function to mint a new token\n     * Reverts if the given token ID already exists\n     * @param to address the beneficiary that will own the minted token\n     * @param tokenId uint256 ID of the token to be minted\n     */\n    function _mint(address to, uint256 tokenId) internal override {\n        super._mint(to, tokenId);\n\n        _addTokenToOwnerEnumeration(to, tokenId);\n\n        _addTokenToAllTokensEnumeration(tokenId);\n    }\n\n    /**\n     * @dev Gets the list of token IDs of the requested owner\n     * @param owner address owning the tokens\n     * @return uint256[] List of token IDs owned by the requested address\n     */\n    function _tokensOfOwner(address owner)\n        internal\n        view\n        returns (uint256[] storage)\n    {\n        return _ownedTokens[owner];\n    }\n\n    /**\n     * @dev Private function to add a token to this extension's ownership-tracking data structures.\n     * @param to address representing the new owner of the given token ID\n     * @param tokenId uint256 ID of the token to be added to the tokens list of the given address\n     */\n    function _addTokenToOwnerEnumeration(address to, uint256 tokenId) private {\n        _ownedTokensIndex[tokenId] = _ownedTokens[to].length;\n        _ownedTokens[to].push(tokenId);\n    }\n\n    /**\n     * @dev Private function to add a token to this extension's token tracking data structures.\n     * @param tokenId uint256 ID of the token to be added to the tokens list\n     */\n    function _addTokenToAllTokensEnumeration(uint256 tokenId) private {\n        _allTokensIndex[tokenId] = _allTokens.length;\n        _allTokens.push(tokenId);\n    }\n\n    /**\n     * @dev Private function to remove a token from this extension's ownership-tracking data structures. Note that\n     * while the token is not assigned a new owner, the _ownedTokensIndex mapping is _not_ updated: this allows for\n     * gas optimizations e.g. when performing a transfer operation (avoiding double writes).\n     * This has O(1) time complexity, but alters the order of the _ownedTokens array.\n     * @param from address representing the previous owner of the given token ID\n     * @param tokenId uint256 ID of the token to be removed from the tokens list of the given address\n     */\n    function _removeTokenFromOwnerEnumeration(address from, uint256 tokenId)\n        private\n    {\n        // To prevent a gap in from's tokens array, we store the last token in the index of the token to delete, and\n        // then delete the last slot (swap and pop).\n\n        uint256 lastTokenIndex = _ownedTokens[from].length.sub(1);\n        uint256 tokenIndex = _ownedTokensIndex[tokenId];\n\n        // When the token to delete is the last token, the swap operation is unnecessary\n        if (tokenIndex != lastTokenIndex) {\n            uint256 lastTokenId = _ownedTokens[from][lastTokenIndex];\n\n            _ownedTokens[from][tokenIndex] = lastTokenId; // Move the last token to the slot of the to-delete token\n            _ownedTokensIndex[lastTokenId] = tokenIndex; // Update the moved token's index\n        }\n\n        // This also deletes the contents at the last position of the array\n        // delete _ownedTokens[from][_ownedTokens[from].length];\n        _ownedTokens[from].pop();\n        // _ownedTokens[from].length--;\n\n        // Note that _ownedTokensIndex[tokenId] hasn't been cleared: it still points to the old slot (now occupied by\n        // lastTokenId, or just over the end of the array if the token was the last one).\n    }\n\n    /**\n     * @dev Private function to remove a token from this extension's token tracking data structures.\n     * This has O(1) time complexity, but alters the order of the _allTokens array.\n     * @param tokenId uint256 ID of the token to be removed from the tokens list\n     */\n    function _removeTokenFromAllTokensEnumeration(uint256 tokenId) private {\n        // To prevent a gap in the tokens array, we store the last token in the index of the token to delete, and\n        // then delete the last slot (swap and pop).\n\n        uint256 lastTokenIndex = _allTokens.length.sub(1);\n        uint256 tokenIndex = _allTokensIndex[tokenId];\n\n        // When the token to delete is the last token, the swap operation is unnecessary. However, since this occurs so\n        // rarely (when the last minted token is burnt) that we still do the swap here to avoid the gas cost of adding\n        // an 'if' statement (like in _removeTokenFromOwnerEnumeration)\n        uint256 lastTokenId = _allTokens[lastTokenIndex];\n\n        _allTokens[tokenIndex] = lastTokenId; // Move the last token to the slot of the to-delete token\n        _allTokensIndex[lastTokenId] = tokenIndex; // Update the moved token's index\n\n        // This also deletes the contents at the last position of the array\n        // _allTokens.length--;\n        _allTokens.pop();\n        _allTokensIndex[tokenId] = 0;\n    }\n}\n\ncontract ERC721Metadata is ERC721Enumerable, usingProvable {\n    // TODO: Create private vars for token _name, _symbol, and _baseTokenURI (string)\n    string private _name;\n    string private _symbol;\n    string private _baseTokenURI;\n\n    // TODO: create private mapping of tokenId's to token uri's called '_tokenURIs'\n    mapping(uint256 => string) private _tokenURIs;\n\n    bytes4 private constant _INTERFACE_ID_ERC721_METADATA = 0x5b5e139f;\n\n    /*\n     * 0x5b5e139f ===\n     *     bytes4(keccak256('name()')) ^\n     *     bytes4(keccak256('symbol()')) ^\n     *     bytes4(keccak256('tokenURI(uint256)'))\n     */\n\n    constructor(\n        string memory name,\n        string memory symbol,\n        string memory baseTokenURI\n    ) public ERC721(name, symbol) {\n        _name = name;\n        _symbol = symbol;\n        _baseTokenURI = baseTokenURI;\n\n        _registerInterface(_INTERFACE_ID_ERC721_METADATA);\n    }\n\n    // constructor(\n    //     string memory name,\n    //     string memory symbol,\n    //     string memory baseTokenURI\n    // ) public {\n    //     // TODO: set instance var values\n    //     _name = name;\n    //     _symbol = symbol;\n    //     _baseTokenURI = baseTokenURI;\n\n    //     _registerInterface(_INTERFACE_ID_ERC721_METADATA);\n    // }\n\n    // TODO: create external getter functions for name, symbol, and baseTokenURI\n    // (already inheritance)\n    // function name() public view override returns (string memory) {\n    //     return _name;\n    // }\n\n    // function symbol() public view override returns (string memory) {\n    //     return _symbol;\n    // }\n\n    // function baseTokenURI() external view returns (string memory) {\n    //     return _baseTokenURI;\n    // }\n\n    // function tokenURI(uint256 tokenId)\n    //     public\n    //     view\n    //     returns (string memory)\n    // {\n    //     require(_exists(tokenId));\n    //     return _tokenURIs[tokenId];\n    // }\n\n    // TODO: Create an internal function to set the tokenURI of a specified tokenId\n    // It should be the _baseTokenURI + the tokenId in string form\n    // TIP #1: use strConcat() from the imported oraclizeAPI lib to set the complete token URI\n    // TIP #2: you can also use uint2str() to convert a uint to a string\n    // see https://github.com/oraclize/ethereum-api/blob/master/oraclizeAPI_0.5.sol for strConcat()\n    // require the token exists before setting\n    // function setTokenURI(uint256 tokenId) internal {\n    //     require(\n    //         ownerOf(tokenId) != address(0),\n    //         \"require the token exists before setting\"\n    //     );\n    //     _tokenURIs[tokenId] = strConcat(_baseTokenURI, uint2str(tokenId));\n    // }\n    //function _setTokenURI(uint256 tokenId, string memory _tokenURI) internal virtual\n    function setTokenURI(uint256 tokenId) internal {\n        _setTokenURI(tokenId, strConcat(_baseTokenURI, uint2str(tokenId)));\n    }\n}\n\n//  TODO's: Create CustomERC721Token contract that inherits from the ERC721Metadata contract. You can name this contract as you please\n//  1) Pass in appropriate values for the inherited ERC721Metadata contract\n//      - make the base token uri: https://s3-us-west-2.amazonaws.com/udacity-blockchain/capstone/\n//  2) create a public mint() that does the following:\n//      -can only be executed by the contract owner\n//      -takes in a 'to' address, tokenId, and tokenURI as parameters\n//      -returns a true boolean upon completion of the function\n//      -calls the superclass mint and setTokenURI functions\n\ncontract CustomERC721Token is\n    ERC721Metadata(\n        \"Real Estate\",\n        \"RES\",\n        \"https://s3-us-west-2.amazonaws.com/udacity-blockchain/capstone/\"\n    )\n{\n    function mint(address to, uint256 tokenId) public onlyOwner returns (bool) {\n        _mint(to, tokenId);\n        setTokenURI(tokenId);\n        return true;\n    }\n}\n",
  "sourcePath": "C:\\Users\\wansa\\Desktop\\real_estate\\RealEstateMarketplace\\eth-contracts\\contracts\\ERC721Mintable.sol",
  "compiler": {
    "name": "solc",
    "version": "0.6.9+commit.3e3065ac.Emscripten.clang"
  },
  "schemaVersion": "3.4.1",
  "updatedAt": "2021-06-22T17:00:23.288Z",
  "devdoc": {
    "methods": {
      "__callback(bytes32,string)": {
        "details": "The following `__callback` functions are just placeholders ideally      meant to be defined in child contract when proofs are used.      The function bodies simply silence compiler warnings."
      },
      "approve(address,uint256)": {
        "details": "See {IERC721-approve}."
      },
      "balanceOf(address)": {
        "details": "See {IERC721-balanceOf}."
      },
      "baseURI()": {
        "details": "Returns the base URI set via {_setBaseURI}. This will be automatically added as a prefix in {tokenURI} to each token's URI, or to the token ID if no specific URI is set for that token ID."
      },
      "getApproved(uint256)": {
        "details": "See {IERC721-getApproved}."
      },
      "isApprovedForAll(address,address)": {
        "details": "See {IERC721-isApprovedForAll}."
      },
      "name()": {
        "details": "See {IERC721Metadata-name}."
      },
      "owner()": {
        "details": "Returns the address of the current owner."
      },
      "ownerOf(uint256)": {
        "details": "See {IERC721-ownerOf}."
      },
      "paused()": {
        "details": "Returns true if the contract is paused, and false otherwise."
      },
      "renounceOwnership()": {
        "details": "Leaves the contract without owner. It will not be possible to call `onlyOwner` functions anymore. Can only be called by the current owner. NOTE: Renouncing ownership will leave the contract without an owner, thereby removing any functionality that is only available to the owner."
      },
      "safeTransferFrom(address,address,uint256)": {
        "details": "See {IERC721-safeTransferFrom}."
      },
      "safeTransferFrom(address,address,uint256,bytes)": {
        "details": "See {IERC721-safeTransferFrom}."
      },
      "setApprovalForAll(address,bool)": {
        "details": "See {IERC721-setApprovalForAll}."
      },
      "supportsInterface(bytes4)": {
        "details": "See {IERC165-supportsInterface}. Time complexity O(1), guaranteed to always use less than 30 000 gas."
      },
      "symbol()": {
        "details": "See {IERC721Metadata-symbol}."
      },
      "tokenByIndex(uint256)": {
        "details": "See {IERC721Enumerable-tokenByIndex}."
      },
      "tokenOfOwnerByIndex(address,uint256)": {
        "details": "See {IERC721Enumerable-tokenOfOwnerByIndex}."
      },
      "tokenURI(uint256)": {
        "details": "See {IERC721Metadata-tokenURI}."
      },
      "totalSupply()": {
        "details": "See {IERC721Enumerable-totalSupply}."
      },
      "transferFrom(address,address,uint256)": {
        "details": "See {IERC721-transferFrom}."
      },
      "transferOwnership(address)": {
        "details": "Transfers ownership of the contract to a new account (`newOwner`). Can only be called by the current owner."
      }
    }
  },
  "userdoc": {
    "methods": {}
  }
}